{
  "_format": "hh-sol-artifact-1",
  "contractName": "TetherToken",
  "sourceName": "contracts/tetherToken.sol",
  "abi": [
    {
      "inputs": [],
      "name": "BasisPointsRateTooHigh",
      "type": "error"
    },
    {
      "inputs": [
        {
          "internalType": "address",
          "name": "spender",
          "type": "address"
        },
        {
          "internalType": "uint256",
          "name": "allowance",
          "type": "uint256"
        },
        {
          "internalType": "uint256",
          "name": "needed",
          "type": "uint256"
        }
      ],
      "name": "ERC20InsufficientAllowance",
      "type": "error"
    },
    {
      "inputs": [
        {
          "internalType": "address",
          "name": "sender",
          "type": "address"
        },
        {
          "internalType": "uint256",
          "name": "balance",
          "type": "uint256"
        },
        {
          "internalType": "uint256",
          "name": "needed",
          "type": "uint256"
        }
      ],
      "name": "ERC20InsufficientBalance",
      "type": "error"
    },
    {
      "inputs": [
        {
          "internalType": "address",
          "name": "approver",
          "type": "address"
        }
      ],
      "name": "ERC20InvalidApprover",
      "type": "error"
    },
    {
      "inputs": [
        {
          "internalType": "address",
          "name": "receiver",
          "type": "address"
        }
      ],
      "name": "ERC20InvalidReceiver",
      "type": "error"
    },
    {
      "inputs": [
        {
          "internalType": "address",
          "name": "sender",
          "type": "address"
        }
      ],
      "name": "ERC20InvalidSender",
      "type": "error"
    },
    {
      "inputs": [
        {
          "internalType": "address",
          "name": "spender",
          "type": "address"
        }
      ],
      "name": "ERC20InvalidSpender",
      "type": "error"
    },
    {
      "inputs": [],
      "name": "EnforcedPause",
      "type": "error"
    },
    {
      "inputs": [],
      "name": "ExpectedPause",
      "type": "error"
    },
    {
      "inputs": [],
      "name": "InvalidInitialization",
      "type": "error"
    },
    {
      "inputs": [],
      "name": "MaxFeeTooHigh",
      "type": "error"
    },
    {
      "inputs": [],
      "name": "NotInitializing",
      "type": "error"
    },
    {
      "inputs": [
        {
          "internalType": "address",
          "name": "owner",
          "type": "address"
        }
      ],
      "name": "OwnableInvalidOwner",
      "type": "error"
    },
    {
      "inputs": [
        {
          "internalType": "address",
          "name": "account",
          "type": "address"
        }
      ],
      "name": "OwnableUnauthorizedAccount",
      "type": "error"
    },
    {
      "inputs": [],
      "name": "RecipientBlacklisted",
      "type": "error"
    },
    {
      "inputs": [],
      "name": "SenderBlacklisted",
      "type": "error"
    },
    {
      "anonymous": false,
      "inputs": [
        {
          "indexed": true,
          "internalType": "address",
          "name": "owner",
          "type": "address"
        },
        {
          "indexed": true,
          "internalType": "address",
          "name": "spender",
          "type": "address"
        },
        {
          "indexed": false,
          "internalType": "uint256",
          "name": "value",
          "type": "uint256"
        }
      ],
      "name": "Approval",
      "type": "event"
    },
    {
      "anonymous": false,
      "inputs": [
        {
          "indexed": false,
          "internalType": "uint64",
          "name": "version",
          "type": "uint64"
        }
      ],
      "name": "Initialized",
      "type": "event"
    },
    {
      "anonymous": false,
      "inputs": [
        {
          "indexed": true,
          "internalType": "address",
          "name": "previousOwner",
          "type": "address"
        },
        {
          "indexed": true,
          "internalType": "address",
          "name": "newOwner",
          "type": "address"
        }
      ],
      "name": "OwnershipTransferred",
      "type": "event"
    },
    {
      "anonymous": false,
      "inputs": [
        {
          "indexed": false,
          "internalType": "address",
          "name": "account",
          "type": "address"
        }
      ],
      "name": "Paused",
      "type": "event"
    },
    {
      "anonymous": false,
      "inputs": [
        {
          "indexed": true,
          "internalType": "address",
          "name": "from",
          "type": "address"
        },
        {
          "indexed": true,
          "internalType": "address",
          "name": "to",
          "type": "address"
        },
        {
          "indexed": false,
          "internalType": "uint256",
          "name": "value",
          "type": "uint256"
        }
      ],
      "name": "Transfer",
      "type": "event"
    },
    {
      "anonymous": false,
      "inputs": [
        {
          "indexed": false,
          "internalType": "address",
          "name": "account",
          "type": "address"
        }
      ],
      "name": "Unpaused",
      "type": "event"
    },
    {
      "inputs": [
        {
          "internalType": "address",
          "name": "account",
          "type": "address"
        }
      ],
      "name": "addToBlacklist",
      "outputs": [],
      "stateMutability": "nonpayable",
      "type": "function"
    },
    {
      "inputs": [
        {
          "internalType": "address",
          "name": "owner",
          "type": "address"
        },
        {
          "internalType": "address",
          "name": "spender",
          "type": "address"
        }
      ],
      "name": "allowance",
      "outputs": [
        {
          "internalType": "uint256",
          "name": "",
          "type": "uint256"
        }
      ],
      "stateMutability": "view",
      "type": "function"
    },
    {
      "inputs": [
        {
          "internalType": "address",
          "name": "spender",
          "type": "address"
        },
        {
          "internalType": "uint256",
          "name": "value",
          "type": "uint256"
        }
      ],
      "name": "approve",
      "outputs": [
        {
          "internalType": "bool",
          "name": "",
          "type": "bool"
        }
      ],
      "stateMutability": "nonpayable",
      "type": "function"
    },
    {
      "inputs": [
        {
          "internalType": "address",
          "name": "account",
          "type": "address"
        }
      ],
      "name": "balanceOf",
      "outputs": [
        {
          "internalType": "uint256",
          "name": "",
          "type": "uint256"
        }
      ],
      "stateMutability": "view",
      "type": "function"
    },
    {
      "inputs": [
        {
          "internalType": "address",
          "name": "from",
          "type": "address"
        },
        {
          "internalType": "uint256",
          "name": "amount",
          "type": "uint256"
        }
      ],
      "name": "burn",
      "outputs": [],
      "stateMutability": "nonpayable",
      "type": "function"
    },
    {
      "inputs": [],
      "name": "decimals",
      "outputs": [
        {
          "internalType": "uint8",
          "name": "",
          "type": "uint8"
        }
      ],
      "stateMutability": "view",
      "type": "function"
    },
    {
      "inputs": [
        {
          "internalType": "string",
          "name": "name",
          "type": "string"
        },
        {
          "internalType": "string",
          "name": "symbol",
          "type": "string"
        },
        {
          "internalType": "uint256",
          "name": "initialSupply",
          "type": "uint256"
        }
      ],
      "name": "initialize",
      "outputs": [],
      "stateMutability": "nonpayable",
      "type": "function"
    },
    {
      "inputs": [
        {
          "internalType": "address",
          "name": "account",
          "type": "address"
        }
      ],
      "name": "isBlacklisted",
      "outputs": [
        {
          "internalType": "bool",
          "name": "",
          "type": "bool"
        }
      ],
      "stateMutability": "view",
      "type": "function"
    },
    {
      "inputs": [
        {
          "internalType": "address",
          "name": "to",
          "type": "address"
        },
        {
          "internalType": "uint256",
          "name": "amount",
          "type": "uint256"
        }
      ],
      "name": "mint",
      "outputs": [],
      "stateMutability": "nonpayable",
      "type": "function"
    },
    {
      "inputs": [],
      "name": "name",
      "outputs": [
        {
          "internalType": "string",
          "name": "",
          "type": "string"
        }
      ],
      "stateMutability": "view",
      "type": "function"
    },
    {
      "inputs": [],
      "name": "owner",
      "outputs": [
        {
          "internalType": "address",
          "name": "",
          "type": "address"
        }
      ],
      "stateMutability": "view",
      "type": "function"
    },
    {
      "inputs": [],
      "name": "pause",
      "outputs": [],
      "stateMutability": "nonpayable",
      "type": "function"
    },
    {
      "inputs": [],
      "name": "paused",
      "outputs": [
        {
          "internalType": "bool",
          "name": "",
          "type": "bool"
        }
      ],
      "stateMutability": "view",
      "type": "function"
    },
    {
      "inputs": [
        {
          "internalType": "address",
          "name": "account",
          "type": "address"
        }
      ],
      "name": "removeFromBlacklist",
      "outputs": [],
      "stateMutability": "nonpayable",
      "type": "function"
    },
    {
      "inputs": [],
      "name": "renounceOwnership",
      "outputs": [],
      "stateMutability": "nonpayable",
      "type": "function"
    },
    {
      "inputs": [
        {
          "internalType": "uint256",
          "name": "newBasisPoints",
          "type": "uint256"
        },
        {
          "internalType": "uint256",
          "name": "newMaxFee",
          "type": "uint256"
        }
      ],
      "name": "setFeeParameters",
      "outputs": [],
      "stateMutability": "nonpayable",
      "type": "function"
    },
    {
      "inputs": [],
      "name": "symbol",
      "outputs": [
        {
          "internalType": "string",
          "name": "",
          "type": "string"
        }
      ],
      "stateMutability": "view",
      "type": "function"
    },
    {
      "inputs": [],
      "name": "totalSupply",
      "outputs": [
        {
          "internalType": "uint256",
          "name": "",
          "type": "uint256"
        }
      ],
      "stateMutability": "view",
      "type": "function"
    },
    {
      "inputs": [
        {
          "internalType": "address",
          "name": "to",
          "type": "address"
        },
        {
          "internalType": "uint256",
          "name": "amount",
          "type": "uint256"
        }
      ],
      "name": "transfer",
      "outputs": [
        {
          "internalType": "bool",
          "name": "",
          "type": "bool"
        }
      ],
      "stateMutability": "nonpayable",
      "type": "function"
    },
    {
      "inputs": [
        {
          "internalType": "address",
          "name": "from",
          "type": "address"
        },
        {
          "internalType": "address",
          "name": "to",
          "type": "address"
        },
        {
          "internalType": "uint256",
          "name": "amount",
          "type": "uint256"
        }
      ],
      "name": "transferFrom",
      "outputs": [
        {
          "internalType": "bool",
          "name": "",
          "type": "bool"
        }
      ],
      "stateMutability": "nonpayable",
      "type": "function"
    },
    {
      "inputs": [
        {
          "internalType": "address",
          "name": "newOwner",
          "type": "address"
        }
      ],
      "name": "transferOwnership",
      "outputs": [],
      "stateMutability": "nonpayable",
      "type": "function"
    },
    {
      "inputs": [],
      "name": "unpause",
      "outputs": [],
      "stateMutability": "nonpayable",
      "type": "function"
    }
  ],
  "bytecode": "0x608060405234801561001057600080fd5b50612378806100206000396000f3fe608060405234801561001057600080fd5b50600436106101425760003560e01c806370a08231116100b85780639dc29fac1161007c5780639dc29fac14610319578063a9059cbb14610335578063b119490e14610365578063dd62ed3e14610381578063f2fde38b146103b1578063fe575a87146103cd57610142565b806370a0823114610299578063715018a6146102c95780638456cb59146102d35780638da5cb5b146102dd57806395d89b41146102fb57610142565b80633f4ba83a1161010a5780633f4ba83a1461020157806340c10f191461020b57806344337ea1146102275780634d56022f14610243578063537df3b61461025f5780635c975abb1461027b57610142565b806306fdde0314610147578063095ea7b31461016557806318160ddd1461019557806323b872dd146101b3578063313ce567146101e3575b600080fd5b61014f6103fd565b60405161015c91906119ff565b60405180910390f35b61017f600480360381019061017a9190611ac9565b61049e565b60405161018c9190611b24565b60405180910390f35b61019d6104c1565b6040516101aa9190611b4e565b60405180910390f35b6101cd60048036038101906101c89190611b69565b6104d9565b6040516101da9190611b24565b60405180910390f35b6101eb610667565b6040516101f89190611bd8565b60405180910390f35b610209610670565b005b61022560048036038101906102209190611ac9565b610682565b005b610241600480360381019061023c9190611bf3565b610698565b005b61025d60048036038101906102589190611c20565b6106fa565b005b61027960048036038101906102749190611bf3565b610790565b005b6102836107f2565b6040516102909190611b24565b60405180910390f35b6102b360048036038101906102ae9190611bf3565b610817565b6040516102c09190611b4e565b60405180910390f35b6102d161086e565b005b6102db610882565b005b6102e5610894565b6040516102f29190611c6f565b60405180910390f35b6103036108cc565b60405161031091906119ff565b60405180910390f35b610333600480360381019061032e9190611ac9565b61096d565b005b61034f600480360381019061034a9190611ac9565b610983565b60405161035c9190611b24565b60405180910390f35b61037f600480360381019061037a9190611dbf565b610ae3565b005b61039b60048036038101906103969190611e4a565b610c97565b6040516103a89190611b4e565b60405180910390f35b6103cb60048036038101906103c69190611bf3565b610d2c565b005b6103e760048036038101906103e29190611bf3565b610db2565b6040516103f49190611b24565b60405180910390f35b60606000610409610e07565b905080600301805461041a90611eb9565b80601f016020809104026020016040519081016040528092919081815260200182805461044690611eb9565b80156104935780601f1061046857610100808354040283529160200191610493565b820191906000526020600020905b81548152906001019060200180831161047657829003601f168201915b505050505091505090565b6000806104a9610e2f565b90506104b6818585610e37565b600191505092915050565b6000806104cc610e07565b9050806002015491505090565b60006104e3610e49565b6000808573ffffffffffffffffffffffffffffffffffffffff1673ffffffffffffffffffffffffffffffffffffffff16815260200190815260200160002060009054906101000a900460ff1615610566576040517f0f09068800000000000000000000000000000000000000000000000000000000815260040160405180910390fd5b6000808473ffffffffffffffffffffffffffffffffffffffff1673ffffffffffffffffffffffffffffffffffffffff16815260200190815260200160002060009054906101000a900460ff16156105e9576040517fa6add80300000000000000000000000000000000000000000000000000000000815260040160405180910390fd5b60006105f483610e8a565b9050600081846106049190611f19565b9050610611868683610ec5565b61063e8661061d610e2f565b8661062f8a61062a610e2f565b610c97565b6106399190611f19565b610e37565b600082111561065a5761065986610653610894565b84610ec5565b5b6001925050509392505050565b60006012905090565b610678610fb9565b610680611040565b565b61068a610fb9565b61069482826110b2565b5050565b6106a0610fb9565b60016000808373ffffffffffffffffffffffffffffffffffffffff1673ffffffffffffffffffffffffffffffffffffffff16815260200190815260200160002060006101000a81548160ff02191690831515021790555050565b610702610fb9565b6064821061073c576040517f7415130800000000000000000000000000000000000000000000000000000000815260040160405180910390fd5b6802b5e3af16b1880000811061077e576040517fa3932d2d00000000000000000000000000000000000000000000000000000000815260040160405180910390fd5b81600181905550806002819055505050565b610798610fb9565b60008060008373ffffffffffffffffffffffffffffffffffffffff1673ffffffffffffffffffffffffffffffffffffffff16815260200190815260200160002060006101000a81548160ff02191690831515021790555050565b6000806107fd611134565b90508060000160009054906101000a900460ff1691505090565b600080610822610e07565b90508060000160008473ffffffffffffffffffffffffffffffffffffffff1673ffffffffffffffffffffffffffffffffffffffff16815260200190815260200160002054915050919050565b610876610fb9565b610880600061115c565b565b61088a610fb9565b610892611233565b565b60008061089f6112a5565b90508060000160009054906101000a900473ffffffffffffffffffffffffffffffffffffffff1691505090565b606060006108d8610e07565b90508060040180546108e990611eb9565b80601f016020809104026020016040519081016040528092919081815260200182805461091590611eb9565b80156109625780601f1061093757610100808354040283529160200191610962565b820191906000526020600020905b81548152906001019060200180831161094557829003601f168201915b505050505091505090565b610975610fb9565b61097f82826112cd565b5050565b600061098d610e49565b6000803373ffffffffffffffffffffffffffffffffffffffff1673ffffffffffffffffffffffffffffffffffffffff16815260200190815260200160002060009054906101000a900460ff1615610a10576040517f0f09068800000000000000000000000000000000000000000000000000000000815260040160405180910390fd5b6000808473ffffffffffffffffffffffffffffffffffffffff1673ffffffffffffffffffffffffffffffffffffffff16815260200190815260200160002060009054906101000a900460ff1615610a93576040517fa6add80300000000000000000000000000000000000000000000000000000000815260040160405180910390fd5b6000610a9e83610e8a565b905060008184610aae9190611f19565b9050610abb338683610ec5565b6000821115610ad757610ad633610ad0610894565b84610ec5565b5b60019250505092915050565b6000610aed61134f565b905060008160000160089054906101000a900460ff1615905060008260000160009054906101000a900467ffffffffffffffff1690506000808267ffffffffffffffff16148015610b3b5750825b9050600060018367ffffffffffffffff16148015610b70575060003073ffffffffffffffffffffffffffffffffffffffff163b145b905081158015610b7e575080155b15610bb5576040517ff92ee8a900000000000000000000000000000000000000000000000000000000815260040160405180910390fd5b60018560000160006101000a81548167ffffffffffffffff021916908367ffffffffffffffff1602179055508315610c055760018560000160086101000a81548160ff0219169083151502179055505b610c0f8888611377565b610c183361138d565b610c206113a1565b610c31610c2b610e2f565b876110b2565b8315610c8d5760008560000160086101000a81548160ff0219169083151502179055507fc7f505b2f371ae2175ee4913f4499e1f2633a7b5936321eed1cdaeb6115181d26001604051610c849190611fa6565b60405180910390a15b5050505050505050565b600080610ca2610e07565b90508060010160008573ffffffffffffffffffffffffffffffffffffffff1673ffffffffffffffffffffffffffffffffffffffff16815260200190815260200160002060008473ffffffffffffffffffffffffffffffffffffffff1673ffffffffffffffffffffffffffffffffffffffff1681526020019081526020016000205491505092915050565b610d34610fb9565b600073ffffffffffffffffffffffffffffffffffffffff168173ffffffffffffffffffffffffffffffffffffffff1603610da65760006040517f1e4fbdf7000000000000000000000000000000000000000000000000000000008152600401610d9d9190611c6f565b60405180910390fd5b610daf8161115c565b50565b60008060008373ffffffffffffffffffffffffffffffffffffffff1673ffffffffffffffffffffffffffffffffffffffff16815260200190815260200160002060009054906101000a900460ff169050919050565b60007f52c63247e1f47db19d5ce0460030c497f067ca4cebf71ba98eeadabe20bace00905090565b600033905090565b610e4483838360016113b3565b505050565b610e516107f2565b15610e88576040517fd93c066500000000000000000000000000000000000000000000000000000000815260040160405180910390fd5b565b60008061271060015484610e9e9190611fc1565b610ea89190612032565b90506002548111610eb95780610ebd565b6002545b915050919050565b600073ffffffffffffffffffffffffffffffffffffffff168373ffffffffffffffffffffffffffffffffffffffff1603610f375760006040517f96c6fd1e000000000000000000000000000000000000000000000000000000008152600401610f2e9190611c6f565b60405180910390fd5b600073ffffffffffffffffffffffffffffffffffffffff168273ffffffffffffffffffffffffffffffffffffffff1603610fa95760006040517fec442f05000000000000000000000000000000000000000000000000000000008152600401610fa09190611c6f565b60405180910390fd5b610fb4838383611599565b505050565b610fc1610e2f565b73ffffffffffffffffffffffffffffffffffffffff16610fdf610894565b73ffffffffffffffffffffffffffffffffffffffff161461103e57611002610e2f565b6040517f118cdaa70000000000000000000000000000000000000000000000000000000081526004016110359190611c6f565b60405180910390fd5b565b6110486117d8565b6000611052611134565b905060008160000160006101000a81548160ff0219169083151502179055507f5db9ee0a495bf2e6ff9c91a7834c1ba4fdd244a5e8aa4e537bd38aeae4b073aa61109a610e2f565b6040516110a79190611c6f565b60405180910390a150565b600073ffffffffffffffffffffffffffffffffffffffff168273ffffffffffffffffffffffffffffffffffffffff16036111245760006040517fec442f0500000000000000000000000000000000000000000000000000000000815260040161111b9190611c6f565b60405180910390fd5b61113060008383611599565b5050565b60007fcd5ed15c6e187e77e9aee88184c21f4f2182ab5827cb3b7e07fbedcd63f03300905090565b60006111666112a5565b905060008160000160009054906101000a900473ffffffffffffffffffffffffffffffffffffffff169050828260000160006101000a81548173ffffffffffffffffffffffffffffffffffffffff021916908373ffffffffffffffffffffffffffffffffffffffff1602179055508273ffffffffffffffffffffffffffffffffffffffff168173ffffffffffffffffffffffffffffffffffffffff167f8be0079c531659141344cd1fd0a4f28419497f9722a3daafe3b4186f6b6457e060405160405180910390a3505050565b61123b610e49565b6000611245611134565b905060018160000160006101000a81548160ff0219169083151502179055507f62e78cea01bee320cd4e420270b5ea74000d11b0c9f74754ebdbfc544b05a25861128d610e2f565b60405161129a9190611c6f565b60405180910390a150565b60007f9016d09d72d40fdae2fd8ceac6b6234c7706214fd39c1cd1e609a0528c199300905090565b600073ffffffffffffffffffffffffffffffffffffffff168273ffffffffffffffffffffffffffffffffffffffff160361133f5760006040517f96c6fd1e0000000000000000000000000000000000000000000000000000000081526004016113369190611c6f565b60405180910390fd5b61134b82600083611599565b5050565b60007ff0c57e16840df040f15088dc2f81fe391c3923bec73e23a9662efc9c229c6a00905090565b61137f611818565b6113898282611858565b5050565b611395611818565b61139e81611895565b50565b6113a9611818565b6113b161191b565b565b60006113bd610e07565b9050600073ffffffffffffffffffffffffffffffffffffffff168573ffffffffffffffffffffffffffffffffffffffff16036114315760006040517fe602df050000000000000000000000000000000000000000000000000000000081526004016114289190611c6f565b60405180910390fd5b600073ffffffffffffffffffffffffffffffffffffffff168473ffffffffffffffffffffffffffffffffffffffff16036114a35760006040517f94280d6200000000000000000000000000000000000000000000000000000000815260040161149a9190611c6f565b60405180910390fd5b828160010160008773ffffffffffffffffffffffffffffffffffffffff1673ffffffffffffffffffffffffffffffffffffffff16815260200190815260200160002060008673ffffffffffffffffffffffffffffffffffffffff1673ffffffffffffffffffffffffffffffffffffffff168152602001908152602001600020819055508115611592578373ffffffffffffffffffffffffffffffffffffffff168573ffffffffffffffffffffffffffffffffffffffff167f8c5be1e5ebec7d5bd14f71427d1e84f3dd0314c0f7b2291e5b200ac8c7c3b925856040516115899190611b4e565b60405180910390a35b5050505050565b60006115a3610e07565b9050600073ffffffffffffffffffffffffffffffffffffffff168473ffffffffffffffffffffffffffffffffffffffff16036115f957818160020160008282546115ed9190612063565b925050819055506116d2565b60008160000160008673ffffffffffffffffffffffffffffffffffffffff1673ffffffffffffffffffffffffffffffffffffffff16815260200190815260200160002054905082811015611688578481846040517fe450d38c00000000000000000000000000000000000000000000000000000000815260040161167f93929190612097565b60405180910390fd5b8281038260000160008773ffffffffffffffffffffffffffffffffffffffff1673ffffffffffffffffffffffffffffffffffffffff16815260200190815260200160002081905550505b600073ffffffffffffffffffffffffffffffffffffffff168373ffffffffffffffffffffffffffffffffffffffff160361171d5781816002016000828254039250508190555061176d565b818160000160008573ffffffffffffffffffffffffffffffffffffffff1673ffffffffffffffffffffffffffffffffffffffff168152602001908152602001600020600082825401925050819055505b8273ffffffffffffffffffffffffffffffffffffffff168473ffffffffffffffffffffffffffffffffffffffff167fddf252ad1be2c89b69c2b068fc378daa952ba7f163c4a11628f55a4df523b3ef846040516117ca9190611b4e565b60405180910390a350505050565b6117e06107f2565b611816576040517f8dfc202b00000000000000000000000000000000000000000000000000000000815260040160405180910390fd5b565b61182061194f565b611856576040517fd7e6bcf800000000000000000000000000000000000000000000000000000000815260040160405180910390fd5b565b611860611818565b600061186a610e07565b90508281600301908161187d9190612270565b508181600401908161188f9190612270565b50505050565b61189d611818565b600073ffffffffffffffffffffffffffffffffffffffff168173ffffffffffffffffffffffffffffffffffffffff160361190f5760006040517f1e4fbdf70000000000000000000000000000000000000000000000000000000081526004016119069190611c6f565b60405180910390fd5b6119188161115c565b50565b611923611818565b600061192d611134565b905060008160000160006101000a81548160ff02191690831515021790555050565b600061195961134f565b60000160089054906101000a900460ff16905090565b600081519050919050565b600082825260208201905092915050565b60005b838110156119a957808201518184015260208101905061198e565b60008484015250505050565b6000601f19601f8301169050919050565b60006119d18261196f565b6119db818561197a565b93506119eb81856020860161198b565b6119f4816119b5565b840191505092915050565b60006020820190508181036000830152611a1981846119c6565b905092915050565b6000604051905090565b600080fd5b600080fd5b600073ffffffffffffffffffffffffffffffffffffffff82169050919050565b6000611a6082611a35565b9050919050565b611a7081611a55565b8114611a7b57600080fd5b50565b600081359050611a8d81611a67565b92915050565b6000819050919050565b611aa681611a93565b8114611ab157600080fd5b50565b600081359050611ac381611a9d565b92915050565b60008060408385031215611ae057611adf611a2b565b5b6000611aee85828601611a7e565b9250506020611aff85828601611ab4565b9150509250929050565b60008115159050919050565b611b1e81611b09565b82525050565b6000602082019050611b396000830184611b15565b92915050565b611b4881611a93565b82525050565b6000602082019050611b636000830184611b3f565b92915050565b600080600060608486031215611b8257611b81611a2b565b5b6000611b9086828701611a7e565b9350506020611ba186828701611a7e565b9250506040611bb286828701611ab4565b9150509250925092565b600060ff82169050919050565b611bd281611bbc565b82525050565b6000602082019050611bed6000830184611bc9565b92915050565b600060208284031215611c0957611c08611a2b565b5b6000611c1784828501611a7e565b91505092915050565b60008060408385031215611c3757611c36611a2b565b5b6000611c4585828601611ab4565b9250506020611c5685828601611ab4565b9150509250929050565b611c6981611a55565b82525050565b6000602082019050611c846000830184611c60565b92915050565b600080fd5b600080fd5b7f4e487b7100000000000000000000000000000000000000000000000000000000600052604160045260246000fd5b611ccc826119b5565b810181811067ffffffffffffffff82111715611ceb57611cea611c94565b5b80604052505050565b6000611cfe611a21565b9050611d0a8282611cc3565b919050565b600067ffffffffffffffff821115611d2a57611d29611c94565b5b611d33826119b5565b9050602081019050919050565b82818337600083830152505050565b6000611d62611d5d84611d0f565b611cf4565b905082815260208101848484011115611d7e57611d7d611c8f565b5b611d89848285611d40565b509392505050565b600082601f830112611da657611da5611c8a565b5b8135611db6848260208601611d4f565b91505092915050565b600080600060608486031215611dd857611dd7611a2b565b5b600084013567ffffffffffffffff811115611df657611df5611a30565b5b611e0286828701611d91565b935050602084013567ffffffffffffffff811115611e2357611e22611a30565b5b611e2f86828701611d91565b9250506040611e4086828701611ab4565b9150509250925092565b60008060408385031215611e6157611e60611a2b565b5b6000611e6f85828601611a7e565b9250506020611e8085828601611a7e565b9150509250929050565b7f4e487b7100000000000000000000000000000000000000000000000000000000600052602260045260246000fd5b60006002820490506001821680611ed157607f821691505b602082108103611ee457611ee3611e8a565b5b50919050565b7f4e487b7100000000000000000000000000000000000000000000000000000000600052601160045260246000fd5b6000611f2482611a93565b9150611f2f83611a93565b9250828203905081811115611f4757611f46611eea565b5b92915050565b6000819050919050565b600067ffffffffffffffff82169050919050565b6000819050919050565b6000611f90611f8b611f8684611f4d565b611f6b565b611f57565b9050919050565b611fa081611f75565b82525050565b6000602082019050611fbb6000830184611f97565b92915050565b6000611fcc82611a93565b9150611fd783611a93565b9250828202611fe581611a93565b91508282048414831517611ffc57611ffb611eea565b5b5092915050565b7f4e487b7100000000000000000000000000000000000000000000000000000000600052601260045260246000fd5b600061203d82611a93565b915061204883611a93565b92508261205857612057612003565b5b828204905092915050565b600061206e82611a93565b915061207983611a93565b925082820190508082111561209157612090611eea565b5b92915050565b60006060820190506120ac6000830186611c60565b6120b96020830185611b3f565b6120c66040830184611b3f565b949350505050565b60008190508160005260206000209050919050565b60006020601f8301049050919050565b600082821b905092915050565b6000600883026121307fffffffffffffffffffffffffffffffffffffffffffffffffffffffffffffffff826120f3565b61213a86836120f3565b95508019841693508086168417925050509392505050565b600061216d61216861216384611a93565b611f6b565b611a93565b9050919050565b6000819050919050565b61218783612152565b61219b61219382612174565b848454612100565b825550505050565b600090565b6121b06121a3565b6121bb81848461217e565b505050565b5b818110156121df576121d46000826121a8565b6001810190506121c1565b5050565b601f821115612224576121f5816120ce565b6121fe846120e3565b8101602085101561220d578190505b612221612219856120e3565b8301826121c0565b50505b505050565b600082821c905092915050565b600061224760001984600802612229565b1980831691505092915050565b60006122608383612236565b9150826002028217905092915050565b6122798261196f565b67ffffffffffffffff81111561229257612291611c94565b5b61229c8254611eb9565b6122a78282856121e3565b600060209050601f8311600181146122da57600084156122c8578287015190505b6122d28582612254565b86555061233a565b601f1984166122e8866120ce565b60005b82811015612310578489015182556001820191506020850194506020810190506122eb565b8683101561232d5784890151612329601f891682612236565b8355505b6001600288020188555050505b50505050505056fea264697066735822122020c843328b90cd6667cca24811ca9c3e6ec1e021c9257da5e8a3da80301acedf64736f6c63430008140033",
  "linkReferences": {},
  "deployedLinkReferences": {}
}